:100000000C94B9000C94CB000C94CB000C94CB0056
:100010000C94CB000C94CB000C94CB000C94CB0034
:100020000C94CB000C94CB000C94CB000C94CB0024
:100030000C94CB000C94CB000C94CB000C94CB0014
:100040000C94CB000C94CB000C94CB000C94CB0004
:100050000C9417010C943C010C94CB000C94CB0035
:100060000C94CB000C94CB00696E6600494E4600A0
:100070006E616E004E414E0000407A10F35A00A0AF
:10008000724E18090010A5D4E80000E87648170061
:1000900000E40B54020000CA9A3B000000E1F505A1
:1000A000000080969800000040420F000000A086EB
:1000B00001000000102700000000E803000000001D
:1000C0006400000000000A000000000001000000C1
:1000D00000002C76D888DC674F0823DFC1DFAE59DB
:1000E000E1B1B796E5E3E453C63AE651997696E86E
:1000F000E6C28426EB898C9B62ED407C6FFCEFBCF2
:100100009C9F40F2BAA56FA5F490055A2AF75C931C
:100110006B6CF9676DC11BFCE0E40D47FEF520E652
:10012000B500D0ED902E0300943577050080841E35
:10013000080000204E0A000000C80C333333330F90
:10014000986E12831141EF8D2114893BE65516CF2D
:10015000FEE6DB18D1844B381BF77C1D901DA4BB39
:10016000E424203284725E228100C9F124ECA1E5EE
:100170003D2711241FBECFEFD8E0DEBFCDBF21E069
:10018000A0E0B1E001C01D92A63AB207E1F70E94DB
:1001900083010C9490030C940000EAE7F0E0808166
:1001A00080648083089585E480937C008FE8809349
:1001B0007A0080E280937E000C94CD0088E08093EA
:1001C000C10086E08093C20087E68093C400089552
:1001D0009091C00095FFFCCF8093C6000895EF92E8
:1001E000FF920F931F93CF93DF93EC017C0100E00C
:1001F00010E0FE0101900020E9F73197EC1BFD0BA8
:100200000E171F0760F08AE00E94E8008DE0DF9182
:10021000CF911F910F91FF90EF900C94E800F701A0
:1002200081917F010E94E8000F5F1F4FE2CF8F9303
:100230008FB78F939F93EF93FF93E0910501809188
:100240000401E81771F0F0E0EA5DFE4F80818093D1
:10025000C6008091050191E0980F97FD09C0909329
:100260000501FF91EF919F918F918FBF8F9118950D
:100270008E5F80930501F5CF1F920F920FB60F92FC
:1002800011242F933F934F935F936F937F938F939B
:100290009F93AF93BF93EF93FF93CF93DF9300D0E0
:1002A00000D0CDB7DEB780917800909179009C01A5
:1002B00040E050E029833A834B835C83CA01B90153
:1002C0000E94B501609300017093010180930201C7
:1002D000909303010E94CD000F900F900F900F900C
:1002E000DF91CF91FF91EF91BF91AF919F918F914E
:1002F0007F916F915F914F913F912F910F900FBE22
:100300000F901F90189500D000D0CDB7DEB70E9497
:10031000DE000E94D30078942FEF8DE399E4215002
:1003200080409040E1F700C0000080910001909172
:100330000101A0910201B091030189839A83AB83EB
:10034000BC8300E027E046E051E0BC01CD010E9403
:10035000F20186E091E00E94EF009FEFADE3B9E487
:100360009150A040B040E1F7DECFE89409C097FB80
:100370003EF490958095709561957F4F8F4F9F4F7C
:100380009923A9F0F92F96E9BB279395F6958795C0
:1003900077956795B795F111F8CFFAF4BB0F11F483
:1003A00060FF1BC06F5F7F4F8F4F9F4F16C088232A
:1003B00011F096E911C0772321F09EE8872F762F60
:1003C00005C0662371F096E8862F70E060E02AF0A1
:1003D0009A95660F771F881FDAF7880F969587958D
:1003E00097F90895A6E0B0E0E8EFF1E00C9465031A
:1003F0004D835E83E22EF02E122F27E02E1508F497
:1004000017E000E0212F4D815E8169837A838B8321
:100410009C8369817A818B819C810E947A02982FCA
:10042000AD81BE813C91832F887030FF3FC0811128
:100430003DC0FD018DE2819368E670E032FD44C06D
:10044000AD81BE8111968C918193813309F03F7EFD
:10045000EE20D1F06D817E816E5F7F4FAF01212F45
:100460008EE2DB01E82E8C916F5F7F4FDA01EC9218
:100470004F5F5F4F21502111F4CFDF01A10FB11D5C
:100480001F5FE10FF11D8C9325E4F2FE25E6892F15
:1004900097FF27C081959DE22083918390E38A3066
:1004A00034F59283805D8383148215C0ED81FE81D3
:1004B0002BE2F1FC03C0F0FE02C020E2219388236E
:1004C00009F4BACF60E770E0F2FE02C06C5F7F4FC4
:1004D000CF010E9452038D819E812696E6E00C9406
:1004E0008103911102C034FDD6CF9BE2D5CF9F5F2F
:1004F0008A50D5CF283008F027E03327DA01990F4A
:10050000311D87FD916000966105710539F43260F7
:100510002E5F3D9330E32A95E1F708959F3F30F039
:1005200080387105610509F03C5F3C5F3D93913077
:1005300008F08068911DDF93CF931F930F93FF9274
:10054000EF92192F987F9695E92F96959695E90F3A
:10055000FF27EE52FF4F99273327EE24FF24A701F0
:10056000E70105900894079428F4360FE71EF81E5B
:10057000491F511D660F771F881F991F0694A1F709
:100580000590079428F4E70EF81E491F561FC11D59
:10059000770F881F991F661F0694A1F7059007948F
:1005A00028F4F80E491F561FC71FD11D880F991F29
:1005B000661F771F0694A1F70590079420F4490F52
:1005C000561FC71FD81F990F661F771F881F0694D5
:1005D000A9F784911095177041F0D695C795579556
:1005E0004795F794E7941A95C1F7E8E7F0E0689427
:1005F0001590159135916591959105907FE27395D0
:10060000E118F10A430B560BC90BD009C0F7E10CF6
:10061000F11E431F561FC91FD01D7EF4703311F405
:100620008A95E6CFE894015030F0080F0AF40027CD
:10063000021708F4202F2395022F7A3328F079E34C
:100640007D932A95E9F710C07D932A9589F6069443
:1006500097956795379517951794E118F10A430B0D
:10066000560BC90BD00998F023957E9173957A3378
:1006700008F070E37C932013B8F77E9170617D934E
:1006800030F0839571E37D9370E32A95E1F71124AF
:10069000EF90FF900F911F91CF91DF91992787FDE8
:1006A00090950895FB01DC0105900D920020E1F783
:1006B00008952F923F924F925F926F927F928F9206
:1006C0009F92AF92BF92CF92DF92EF92FF920F93E1
:1006D0001F93CF93DF93CDB7DEB7CA1BDB0B0FB6EB
:1006E000F894DEBF0FBECDBF09942A8839884888A8
:1006F0005F846E847D848C849B84AA84B984C8843E
:10070000DF80EE80FD800C811B81AA81B981CE0F34
:10071000D11D0FB6F894DEBF0FBECDBFED01089519
:04072000F894FFCF7B
:00000001FF
